:0600000000F000EF0DF01E
:100600000000000000DCCFD1350000000000C01564
:100610003F6042A20D70A5EC363BAAB83F4F38763A
:100620003F3CAA38338CBEBF350072313F1872315F
:100630003F4CBB31330EEADDB555B38A38610B361A
:10064000BBABAA2A3E42F1533E55326C3E05A38B0A
:100650003EABAAAA3EB76DDB3E9A99193F6042A213
:100660000DCAF249710000804B0000803F0000C0BD
:100670003F00AAB83FC623F6B80040763F48656CF5
:100680006C6F20576F726C64212564003078255898
:100690000000FFFF1EC034F01FC035F020C036F050
:1006A00021C037F022C038F023C039F024C03AF01E
:1006B00025C03BF03BBE5FEF03F063EF03F0FFFFAD
:1006C000010E65EF03F0FFFF000EFFFF3E6E3E5090
:1006D000D8B46DEF03F070EF03F0FFFF81EF03F08C
:1006E000FFFF3B1E3A1E391E381E371E361E351EB2
:1006F000346C000E352236223722382239223A2233
:100700003B22FFFF79BE90EF03F0795006E17804B9
:10071000D8B08DEF03F090EF03F0FFFF97EF03F0F9
:10072000FFFF000E316E010E306E9CEF03F0FFFFF5
:1007300078C030F079C031F0FFFF86C032F087C05A
:1007400033F03E50D8B4A7EF03F0AAEF03F0FFFF59
:10075000C6EF03F0FFFF3206D8A033063E50D8A400
:10076000B4EF03F0B7EF03F0FFFFBEEF03F0FFFFBE
:10077000000E2F6E2B0E2E6EC3EF03F0FFFF000E48
:100780002F6E2D0E2E6EFFFF2EC03EF0FFFF000ECF
:100790003D6E1F0E3C6E000E0001C86F4DEF04F061
:1007A000FFFF3C06D8A03D06A90E3C24D96E000EE2
:1007B0003D20DA6E34C001F035C002F036C003F0DF
:1007C00037C004F038C005F039C006F03AC007F071
:1007D0003BC008F00A0E096E000E0A6E000E0B6E8A
:1007E000000E0C6E000E0D6E000E0E6E000E0F6EE3
:1007F000000E106E52EC08F001C026F002C027F087
:1008000003C028F004C029F005C02AF006C02BF070
:1008100007C02CF008C02DF026C013F027C014F03C
:10082000DAEC0CF01350300FDF6E3006D8A0310632
:100830003206D8A0330634C001F035C002F036C00D
:1008400003F037C004F038C005F039C006F03AC0F4
:1008500007F03BC008F00A0E096E000E0A6E000E8B
:100860000B6E000E0C6E000E0D6E000E0E6E000E66
:100870000F6E000E106EABEC06F001C034F002C03B
:1008800035F003C036F004C037F005C038F006C0BC
:1008900039F007C03AF008C03BF0FFFF3DBE59EF0A
:1008A00004F03D5009E13C04D8A059EF04F05CEF9E
:1008B00004F0FFFF7CEF04F0FFFF345035103610DA
:1008C0003710381039103A103B10D8A46AEF04F0F2
:1008D0006DEF04F0FFFFD0EF03F0FFFF31BE7CEFC0
:1008E00004F0315006E13004D8B079EF04F07CEF29
:1008F00004F0FFFFD0EF03F0FFFF3E50D8B483EFCA
:1009000004F086EF04F0FFFF92EF04F0FFFF3C06D7
:10091000D8A03D06A90E3C24D96E000E3D20DA6E0B
:100920003EC0DFFFFFFF1CC011F01DC012F0A90E7A
:100930003C24136E000E3D20146E32C015F033C0FF
:1009400016F004EC0BF01200FFFFFFFF41C0D9FFCF
:1009500042C0DAFFDECFF6FFDDCFF7FF0800FFFF72
:10096000F550250AD8A4B7EF04F0BAEF04F0FFFF62
:10097000B4EF05F0FFFF41C0D9FF42C0DAFFDE2A25
:10098000000EDD22000E0001876F000E866F86C00C
:100990007EF07868796841C0D9FF42C0DAFFDECFC7
:1009A00051F0DDCF52F051C0F6FF52C0F7FF080002
:1009B000FFFFF550640AD8B4E0EF04F0E3EF04F071
:1009C000FFFFF4EF04F0FFFF51C0F6FF52C0F7FF46
:1009D0000800FFFFF550690AD8A4F1EF04F0F4EF26
:1009E00004F0FFFF38EF05F0FFFF43C0D9FF44C01C
:1009F000DAFFDFCF45F0020EDE26DFCF46F0000E35
:100A0000DD2245C0D9FF46C0DAFFDECF49F0DDCF99
:100A10004AF0000E4ABEFF0E4B6E4C6E4D6E4E6E8F
:100A20004F6E506E010E5124456E000E5220466EE0
:100A300041C0D9FF42C0DAFF45C0DEFF46C0DDFF3E
:100A40003FC01CF040C01DF049C01EF04AC01FF05E
:100A50004BC020F04CC021F04DC022F04EC023F01E
:100A60004FC024F050C025F049EC03F0CAEF05F068
:100A7000FFFF51C0F6FF52C0F7FF0800FFFFF5501F
:100A8000580AD8A446EF05F049EF05F0FFFFAAEF9A
:100A900005F0FFFF43C0D9FF44C0DAFFDFCF45F0C8
:100AA000020EDE26DFCF46F0000EDD2245C0D9FF64
:100AB00046C0DAFFDECF47F0DDCF48F047C049F04F
:100AC00048C04AF04B6A4C6A4D6A4E6A4F6A506A97
:100AD000010E5124456E000E5220466E41C0D9FFD2
:100AE00042C0DAFF45C0DEFF46C0DDFF91EF05F0F2
:100AF000FFFF3FC01CF040C01DF049C01EF04AC0BF
:100B00001FF04BC020F04CC021F04DC022F04EC071
:100B100023F04FC024F050C025F0CDEC05F0CAEF13
:100B200005F0FFFF51C0F6FF52C0F7FF0800FFFFBE
:100B3000F550456E466A4650000AD8B4A2EF05F05B
:100B4000AAEF05F0FFFF4550580AD8B478EF05F03A
:100B5000AAEF05F0FFFF41C0D9FF42C0DAFFDE2A4D
:100B6000000EDD22CAEF05F0FFFF41C0D9FF42C0F1
:100B7000DAFFDECFF6FFDDCFF7FF0800FFFFF5500D
:100B8000016E026A3FC003F040C004F042EC0AF07C
:100B9000AAEF05F0FFFF1200FFFFFFFF79BEDCEFB9
:100BA00005F0795006E17804D8B0D9EF05F0DCEF14
:100BB00005F0FFFFE3EF05F0FFFF000E336E010EBF
:100BC000326EE8EF05F0FFFF78C032F079C033F005
:100BD000FFFF86C02EF087C02FF01EC034F01FC06C
:100BE00035F020C036F021C037F022C038F023C0E5
:100BF00039F024C03AF025C03BF0000E3D6E1F0EC8
:100C00003C6E000E0001C86F68EF06F0FFFF3C0667
:100C1000D8A03D0634500F0B3E6E090E3E6413EF14
:100C200006F016EF06F0FFFF1FEF06F0FFFF370E8E
:100C30003E24306E316A000E312226EF06F0FFFFAF
:100C4000300E3E24306E316A000E3122FFFF30C07C
:100C50003EF0A90E3C24D96E000E3D20DA6E3EC057
:100C6000DFFF3206D8A033062E06D8A02F0634C0E8
:100C700026F035C027F036C028F037C029F038C03C
:100C80002AF039C02BF03AC02CF03BC02DF0050EF5
:100C900054EF06F0FFFFD8902D322C322B322A323F
:100CA0002932283227322632FFFFE82E4AEF06F09B
:100CB00026C034F027C035F028C036F029C037F000
:100CC0002AC038F02BC039F02CC03AF02DC03BF0D0
:100CD000FFFF3DBE75EF06F03D500AE1020E3C5CA1
:100CE000D8A075EF06F078EF06F0FFFF98EF06F05A
:100CF000FFFF3450351036103710381039103A10C5
:100D00003B10D8A486EF06F089EF06F0FFFF06EF50
:100D100006F0FFFF33BE98EF06F0335006E13204D1
:100D2000D8B095EF06F098EF06F0FFFF06EF06F05B
:100D3000FFFF1CC011F01DC012F0A90E3C24136E61
:100D4000000E3D20146E2EC015F02FC016F004ECDE
:100D50000BF01200FFFFFFFF000E126E10BEB6EF89
:100D600006F0B3EF06F0FFFFC9EF06F0FFFF101E1D
:100D70000F1E0E1E0D1E0C1E0B1E0A1E096C000EF1
:100D80000A220B220C220D220E220F221022010E0B
:100D9000126EFFFF08BED2EF06F0CFEF06F0FFFFA6
:100DA000E5EF06F0FFFF081E071E061E051E041EC7
:100DB000031E021E016C000E0222032204220522E1
:100DC000062207220822010E121AFFFF20EE13F05E
:100DD000070EDE6AE806FDE209500A100B100C103F
:100DE0000D100E100F101010D8B4F9EF06F0FCEF34
:100DF00006F0FFFF57EF07F0FFFF010E116E0CEF3B
:100E000007F0FFFFD89009360A360B360C360D3640
:100E10000E360F361036112AFFFF10AE12EF07F014
:100E200015EF07F0FFFF01EF07F0FFFFFFFFD8907E
:100E300013361436153616361736183619361A364E
:100E40000950015C0A5002580B5003580C500458CA
:100E50000D5005580E5006580F500758105008589E
:100E6000D8A035EF07F038EF07F0FFFF4AEF07F0A3
:100E7000FFFF0950015E0A50025A0B50035A0C50F2
:100E8000045A0D50055A0E50065A0F50075A10506A
:100E9000085A1380FFFFD89010320F320E320D32F5
:100EA0000C320B320A320932112E16EF07F0FFFF17
:100EB0001250D8B45EEF07F061EF07F0FFFF72EF5A
:100EC00007F0FFFF1A1E191E181E171E161E151EEC
:100ED000141E136C000E142215221622172218223B
:100EE00019221A22FFFF13C001F014C002F015C02E
:100EF00003F016C004F017C005F018C006F019C0C2
:100F000007F01AC008F01200FFFFFFFF01C00BF04E
:100F100002C00CF005500610D8A491EF07F094EF32
:100F200007F0FFFF97EF07F0FFFF4FEF08F0FFFF1D
:100F30000BC0D9FF0CC0DAFF03C0DFFF05500B2444
:100F4000076E06500C20086EFF0E0724D96EFF0EA8
:100F50000820DA6E03C0DFFF065007E1030E055CD0
:100F6000D8B0B5EF07F0B8EF07F0FFFFBBEF07F021
:100F7000FFFF4FEF08F0FFFF20EE01F00B50D926E6
:100F80000C50DA2203C0DFFF20EE02F00B50D9260E
:100F90000C50DA2203C0DFFF05500B24076E065009
:100FA0000C20086EFE0E0724D96EFF0E0820DA6EA4
:100FB00003C0DFFF05500B24076E06500C20086E9F
:100FC000FD0E0724D96EFF0E0820DA6E03C0DFFF86
:100FD000065007E1070E055CD8B0F1EF07F0F4EF1B
:100FE00007F0FFFFF7EF07F0FFFF4FEF08F0FFFFFD
:100FF00020EE03F00B50D9260C50DA2203C0DFFF9D
:1010000005500B24076E06500C20086EFC0E0724BA
:10101000D96EFF0E0820DA6E03C0DFFF065007E12D
:10102000090E055CD8B017EF08F01AEF08F0FFFFC3
:101030001DEF08F0FFFF4FEF08F0FFFF0BC007F0B8
:101040000CC008F0071E081E074A082A030E0714E2
:10105000096E0A6A09500B260A500C220950055ED7
:101060000A50065AFC0E0516FF0E061644EF08F04D
:10107000FFFF0BC0D9FF0CC0DAFF03C0DFFF05067E
:10108000D8A006060B4A0C2AFFFF05500610D8A46C
:101090004CEF08F04FEF08F0FFFF38EF08F0FFFFCC
:1010A0001200FFFFFFFF000E126E08BE5DEF08F09A
:1010B0005AEF08F0FFFF70EF08F0FFFF081E071E51
:1010C000061E051E041E031E021E016C000E0222D7
:1010D000032204220522062207220822010E126E94
:1010E000FFFF10BE79EF08F076EF08F0FFFF8AEF00
:1010F00008F0FFFF101E0F1E0E1E0D1E0C1E0B1EF5
:101100000A1E096C000E0A220B220C220D220E224E
:101110000F221022FFFF09500A100B100C100D10A7
:101120000E100F101010D8B498EF08F09BEF08F0D5
:10113000FFFFECEF08F0FFFF010E116EABEF08F0C0
:10114000FFFFD89009360A360B360C360D360E36B0
:101150000F361036112AFFFF10AEB1EF08F0B4EFD2
:1011600008F0FFFFA0EF08F0FFFFFFFF0950015C50
:101170000A5002580B5003580C5004580D50055893
:101180000E5006580F50075810500858D8A0CBEFF3
:1011900008F0CEEF08F0FFFFDFEF08F0FFFF095087
:1011A000015E0A50025A0B50035A0C50045A0D505B
:1011B000055A0E50065A0F50075A1050085AFFFF92
:1011C000D89010320F320E320D320C320B320A32FE
:1011D0000932112EB5EF08F0FFFF1250D8B4F3EF2B
:1011E00008F0F6EF08F0FFFF07EF09F0FFFF081E19
:1011F000071E061E051E041E031E021E016C000EA5
:101200000222032204220522062207220822FFFFCF
:1012100001C001F002C002F003C003F004C004F0FA
:1012200005C005F006C006F007C007F008C008F0CA
:101230001200FFFFFFFF9FEC0DF091EC0DF05DEC55
:101240000CF0FFEC0BF03CEC0DF0ACEC0DF0000EF4
:10125000756E000E746E000E716E000E706E3CECBA
:101260000DF0880E5B6E000E5C6E7D0E5D6E060EE0
:101270005E6E000E606E000E5F6E89EC0CF0FFFF7C
:10128000B3EC0AF0B0EF09F0FFFFCAEC09F003C0BD
:1012900076F004C077F0762806E17728D8A453EFDB
:1012A00009F056EF09F0FFFF59EF09F0FFFFB0EF2B
:1012B00009F0FFFF76C001F077C002F0CBEC0BF035
:1012C00076507426775075220F0E76187710D8A4B2
:1012D0006CEF09F06FEF09F0FFFF76EF09F0FFFF09
:1012E000000E716E010E706EB0EF09F0FFFF3CEC66
:1012F0000DF0880E5B6E000E5C6E7D0E5D6E060E50
:101300005E6E74C05FF075C060F089EC0CF03FEF6A
:1013100009F0FFFF21EC0DF001C072F002C073F084
:101320003CEC0DF0880E5B6E000E5C6E890E5D6EFF
:10133000060E5E6E72C05FF073C060F089EC0CF058
:10134000980E5B6E000E5C6E8C0E5D6E060E5E6E11
:1013500072C05FF073C060F089EC0CF03FEF09F0F1
:10136000FFFF70C06EF071C06FF06F50000AD8B40C
:10137000BCEF09F0B0EF09F0FFFF6E50000AD8B4DF
:1013800044EF09F0010AD8B489EF09F0B0EF09F091
:1013900001EF00F0FFFF8A904BEC0BF001C005F06D
:1013A00002C006F0052809E10628D8B4DAEF09F0F2
:1013B000DDEF09F0FFFFE4EF09F0FFFF05C003F0E8
:1013C00006C004F03FEF0AF0FFFF8A808A924BECE0
:1013D0000BF001C005F002C006F0052809E106285F
:1013E000D8B4F5EF09F0F8EF09F0FFFF01EF0AF0CC
:1013F000FFFF040E0524036E000E0620046E3FEF6F
:101400000AF0FFFF8A828A944BEC0BF001C005F0D2
:1014100002C006F0052809E10628D8B412EF0AF048
:1014200015EF0AF0FFFF1EEF0AF0FFFF080E05247C
:10143000036E000E0620046E3FEF0AF0FFFF8A8461
:101440008A964BEC0BF001C005F002C006F00528AF
:1014500009E10628D8B42FEF0AF032EF0AF0FFFFB7
:101460003BEF0AF0FFFF0C0E0524036E000E062072
:10147000046E3FEF0AF0FFFF8A8603680468FFFFEF
:101480001200FFFFFFFF03500410D8B44AEF0AF028
:101490004DEF0AF0FFFF58EF0AF0FFFF0350041072
:1014A000D8A455EF0AF058EF0AF0FFFF5EEF0AF0FC
:1014B000FFFF0150B9EC0DF0B0EF0AF0FFFF20EE96
:1014C00009F00350D9260450DA22DE50DE10D8B4D9
:1014D0006CEF0AF06FEF0AF0FFFF8CEF0AF0FFFFEE
:1014E00020EE09F00350D9260450DA2210EE03F062
:1014F0000350E1260450E222DE50E65CE650800A0A
:10150000096EDE50800A0958D8B089EF0AF08CEFD6
:101510000AF0FFFFB0EF0AF0FFFF20EE03F00350E8
:10152000D9260450DA22DECF05F0DDCF06F003C065
:10153000D9FF04C0DAFFDECF07F0DDCF08F0055099
:101540000724D96E06500820DA6E01C0DFFF20EEB6
:1015500003F00350D9260450DA22DE2A000EDD22E1
:10156000FFFF1200FFFFFFFF000E016E800E91ECE7
:101570000BF0000E066E000E056EFFFF010E016EF1
:10158000880E0524D96E000E0620DA6EDF5091EC2D
:101590000BF0054A062A06BED7EF0AF006500AE10C
:1015A000100E055CD8A0D7EF0AF0DAEF0AF0FFFFC3
:1015B000BDEF0AF0FFFF000E016EC00E91EC0BF0C4
:1015C000000E086E000E076EFFFF010E016E980EF2
:1015D0000724D96E000E0820DA6EDF5091EC0BF074
:1015E000074A082A08BEFEEF0AF008500AE1100E6A
:1015F000075CD8A0FEEF0AF001EF0BF0FFFFE4EF6D
:101600000AF0FFFF1200FFFFFFFF16BE0AEF0BF00C
:101610000DEF0BF0FFFF14EF0BF0FFFF15C01AF0FA
:1016200016C01BF019EF0BF0FFFF000E1B6E000E33
:101630001A6EFFFF000E196E000E186E2DEF0BF0E4
:10164000FFFF000E026E200E016E11C003F012C0EB
:1016500004F042EC0AF0184A192AFFFF1A50185CED
:101660001950800A176E1B50800A1758D8A03BEFFC
:101670000BF03EEF0BF0FFFF20EF0BF0FFFF13C06E
:101680000AF014C00BF011C00CF012C00DF0B2EC57
:101690000CF01200FFFFFFFF81B851EF0BF054EF89
:1016A0000BF0FFFF5BEF0BF0FFFF000E026E000E72
:1016B000016E8EEF0BF0FFFF81BA61EF0BF064EF6C
:1016C0000BF0FFFF6BEF0BF0FFFF000E026E010E41
:1016D000016E8EEF0BF0FFFF80B671EF0BF074EF31
:1016E0000BF0FFFF7BEF0BF0FFFF000E026E020E10
:1016F000016E8EEF0BF0FFFF80BA81EF0BF084EFED
:101700000BF0FFFF8BEF0BF0FFFF000E026E030EDE
:10171000016E8EEF0BF0FFFF01680268FFFF120001
:10172000FFFFFFFF026E95CF04F001B002D08D9055
:1017300001D08D8002C08CFF00F000F000F08D849D
:1017400000F000F000F08D9400F000F000F0000ECA
:101750008C6E95688D828D9000F000F000F0FFFF98
:101760008D8400F000F000F0000E83BE010E036EC9
:101770008D9400F000F000F00350D8A4C2EF0BF0FD
:10178000C5EF0BF0FFFFAFEF0BF0FFFF04C095FFBD
:101790008D921200FFFFFFFF030E0114046E056A15
:1017A000030E036E6F0EFFFFE82EFDD7032EFBD74F
:1017B000D8900434D96E0534DA6EC90ED926000EDD
:1017C000DA2202D8F0EF0BF0FFFF0500FA6EDE50D0
:1017D000FD6EDE50FE6EF850FF6EFA501200FFFFF5
:1017E000FFFF030E036E6F0EFFFFE82EFDD7032EE3
:1017F000FBD78A808A828A848A861200FFFFFFFFD5
:10180000000E016E400E91EC0BF0010E016E000E09
:1018100091EC0BF0010E016E0A0E91EC0BF0010E33
:10182000016E150E91EC0BF0010E016E110E91EC94
:101830000BF0010E016E0A0E91EC0BF0010E016E21
:10184000040E91EC0BF0010E016E000E91EC0BF00A
:10185000010E016E000E91EC0BF01200FFFFFFFF76
:1018600055C059F056C05AF045EF0CF0FFFF53C079
:101870003FF054C040F0590E416E000E426E57C00A
:1018800043F058C044F0A5EC04F0FFFF59C0F6FF48
:101890005AC0F7FF0800FFFFF5500009D8A453EF26
:1018A0000CF056EF0CF0FFFF36EF0CF0FFFF000ED0
:1018B000546E000E536E1200FFFFFFFF000E956E78
:1018C0009690969296948D920D0E0D6E2E0EFFFFB1
:1018D000E82EFDD70D2EFBD7000E016E380E91ECD1
:1018E0000BF0000E016E0E0E91EC0BF0000E016E6F
:1018F000010E91EC0BF0000E016E020E91EC0BF05C
:10190000000E016E060E91EC0BF03CEC0DF0120097
:10191000FFFFFFFF5F0E616E000E626E5BC063F043
:101920005CC064F0000E676E000E666E000E6D6E99
:10193000000E6C6E630E536E000E546E5DC055F05B
:101940005EC056F0610E576E000E586E2FEC0CF014
:1019500066505B24D96E67505C20DA6E000EDF6E35
:101960001200FFFFFFFF000E106E000E0F6EC5EF9E
:101970000CF0FFFF0EC001F0026A0CC003F00DC0B6
:1019800004F042EC0AF00F4A102AFFFF0F500A241D
:10199000D96E10500B20DA6EDF500E6E0E50D8A4A8
:1019A000D4EF0CF0D7EF0CF0FFFFB9EF0CF0FFFF16
:1019B0001200FFFFFFFF14BEE9EF0CF0145006E128
:1019C0001304D8B0E6EF0CF0E9EF0CF0FFFFF8EFEE
:1019D0000CF0FFFF13C015F014C016F0151E161EF4
:1019E000154A162A15C013F016C014F0FDEF0CF0BE
:1019F000FFFF13C013F014C014F0FFFF1200FFFF2D
:101A00006A0EF66E1B0EF76E000EF86E00EEC9F051
:101A100010EE08F00900F5CFEEFFE550E150FAE1D5
:101A200000EE80F0490EEE6AE806FDE100EE78F087
:101A3000080EEE6AE806FDE1000EF86E00011AEFEE
:101A400009F0FFFF010E7F6E28EF0DF0FFFF00F0A1
:101A5000FFFF040E7F18D8A430EF0DF033EF0DF028
:101A6000FFFF26EF0DF0FFFF000E7F6E7AC001F042
:101A70007BC002F01200FFFFFFFF880E016E000E18
:101A8000026E000E046E200E036E000E066E200E17
:101A9000056E85EC07F01200FFFFFFFF52EF0DF01F
:101AA000FFFF00F0FFFF80A658EF0DF05BEF0DF099
:101AB000FFFF50EF0DF0FFFF1200FFFFFFFF63EF8E
:101AC0000DF0FFFF00F0FFFF81AA69EF0DF06CEF52
:101AD0000DF0FFFF61EF0DF0FFFF1200FFFFFFFFB2
:101AE00074EF0DF0FFFF00F0FFFF81A87AEF0DF01B
:101AF0007DEF0DF0FFFF72EF0DF0FFFF1200FFFF13
:101B0000FFFF85EF0DF0FFFF00F0FFFF80AA8BEFD6
:101B10000DF08EEF0DF0FFFF83EF0DF0FFFF1200D1
:101B2000FFFFFFFFF00E9316300E9312280E921255
:101B3000F19E8A808A828A848A861200FFFFFFFFD4
:101B4000000E956E8C908C928C948C968C988C9ABE
:101B50008C9C8C9E1200FFFFFFFF9496949A9292A9
:101B60009294948880841200FFFFDE1ABC1A9A1A9D
:0C1B7000001BFFFF1200FFFFFFFFFFFF44
:020000040020DA
:08000000FFFFFFFFFFFFFFFF00
:020000040030CA
:0E000000FF220F0EFF0181FF0FC00FE00F4027
:00000001FF
